{
  "_format": "hh-sol-artifact-1",
  "contractName": "SimpleEscrow",
  "sourceName": "contracts/SimpleEscrow.sol",
  "abi": [
    {
      "anonymous": false,
      "inputs": [
        {
          "indexed": true,
          "internalType": "bytes32",
          "name": "jobId",
          "type": "bytes32"
        },
        {
          "indexed": false,
          "internalType": "address",
          "name": "by",
          "type": "address"
        }
      ],
      "name": "ChallengeRaised",
      "type": "event"
    },
    {
      "anonymous": false,
      "inputs": [
        {
          "indexed": true,
          "internalType": "bytes32",
          "name": "jobId",
          "type": "bytes32"
        },
        {
          "indexed": true,
          "internalType": "address",
          "name": "worker",
          "type": "address"
        }
      ],
      "name": "JobClaimed",
      "type": "event"
    },
    {
      "anonymous": false,
      "inputs": [
        {
          "indexed": true,
          "internalType": "bytes32",
          "name": "jobId",
          "type": "bytes32"
        },
        {
          "indexed": true,
          "internalType": "address",
          "name": "client",
          "type": "address"
        },
        {
          "indexed": false,
          "internalType": "uint256",
          "name": "reward",
          "type": "uint256"
        }
      ],
      "name": "JobFunded",
      "type": "event"
    },
    {
      "anonymous": false,
      "inputs": [
        {
          "indexed": true,
          "internalType": "bytes32",
          "name": "jobId",
          "type": "bytes32"
        },
        {
          "indexed": true,
          "internalType": "address",
          "name": "to",
          "type": "address"
        }
      ],
      "name": "PaymentReleased",
      "type": "event"
    },
    {
      "anonymous": false,
      "inputs": [
        {
          "indexed": true,
          "internalType": "bytes32",
          "name": "jobId",
          "type": "bytes32"
        },
        {
          "indexed": false,
          "internalType": "bytes32",
          "name": "resultHash",
          "type": "bytes32"
        }
      ],
      "name": "ResultSubmitted",
      "type": "event"
    },
    {
      "inputs": [
        {
          "internalType": "bytes32",
          "name": "jobId",
          "type": "bytes32"
        }
      ],
      "name": "challenge",
      "outputs": [],
      "stateMutability": "nonpayable",
      "type": "function"
    },
    {
      "inputs": [
        {
          "internalType": "bytes32",
          "name": "jobId",
          "type": "bytes32"
        }
      ],
      "name": "claimJob",
      "outputs": [],
      "stateMutability": "nonpayable",
      "type": "function"
    },
    {
      "inputs": [
        {
          "internalType": "bytes32",
          "name": "jobId",
          "type": "bytes32"
        }
      ],
      "name": "fundJob",
      "outputs": [],
      "stateMutability": "payable",
      "type": "function"
    },
    {
      "inputs": [
        {
          "internalType": "bytes32",
          "name": "jobId",
          "type": "bytes32"
        }
      ],
      "name": "getJob",
      "outputs": [
        {
          "components": [
            {
              "internalType": "address",
              "name": "client",
              "type": "address"
            },
            {
              "internalType": "address",
              "name": "worker",
              "type": "address"
            },
            {
              "internalType": "uint256",
              "name": "reward",
              "type": "uint256"
            },
            {
              "internalType": "bytes32",
              "name": "resultHash",
              "type": "bytes32"
            },
            {
              "internalType": "bool",
              "name": "funded",
              "type": "bool"
            },
            {
              "internalType": "bool",
              "name": "released",
              "type": "bool"
            }
          ],
          "internalType": "struct SimpleEscrow.Job",
          "name": "",
          "type": "tuple"
        }
      ],
      "stateMutability": "view",
      "type": "function"
    },
    {
      "inputs": [
        {
          "internalType": "bytes32",
          "name": "",
          "type": "bytes32"
        }
      ],
      "name": "jobs",
      "outputs": [
        {
          "internalType": "address",
          "name": "client",
          "type": "address"
        },
        {
          "internalType": "address",
          "name": "worker",
          "type": "address"
        },
        {
          "internalType": "uint256",
          "name": "reward",
          "type": "uint256"
        },
        {
          "internalType": "bytes32",
          "name": "resultHash",
          "type": "bytes32"
        },
        {
          "internalType": "bool",
          "name": "funded",
          "type": "bool"
        },
        {
          "internalType": "bool",
          "name": "released",
          "type": "bool"
        }
      ],
      "stateMutability": "view",
      "type": "function"
    },
    {
      "inputs": [
        {
          "internalType": "bytes32",
          "name": "jobId",
          "type": "bytes32"
        }
      ],
      "name": "releasePayment",
      "outputs": [],
      "stateMutability": "nonpayable",
      "type": "function"
    },
    {
      "inputs": [
        {
          "internalType": "bytes32",
          "name": "jobId",
          "type": "bytes32"
        },
        {
          "internalType": "bytes32",
          "name": "resultHash",
          "type": "bytes32"
        }
      ],
      "name": "submitResult",
      "outputs": [],
      "stateMutability": "nonpayable",
      "type": "function"
    }
  ],
  "bytecode": "0x608060405234801561001057600080fd5b506110f3806100206000396000f3fe6080604052600436106100705760003560e01c80637aa1ed581161004e5780637aa1ed58146100fc578063cffd46dc14610125578063d91e92411461014e578063f729cf0d1461017757610070565b806338ed7cfc1461007557806345330bc3146100b75780635fcec5c6146100d3575b600080fd5b34801561008157600080fd5b5061009c60048036038101906100979190610baf565b6101b4565b6040516100ae96959493929190610c60565b60405180910390f35b6100d160048036038101906100cc9190610baf565b61024a565b005b3480156100df57600080fd5b506100fa60048036038101906100f59190610baf565b610459565b005b34801561010857600080fd5b50610123600480360381019061011e9190610baf565b6105fa565b005b34801561013157600080fd5b5061014c60048036038101906101479190610baf565b610812565b005b34801561015a57600080fd5b5061017560048036038101906101709190610cc1565b6108f0565b005b34801561018357600080fd5b5061019e60048036038101906101999190610baf565b6109e9565b6040516101ab9190610db8565b60405180910390f35b60006020528060005260406000206000915090508060000160009054906101000a900473ffffffffffffffffffffffffffffffffffffffff16908060010160009054906101000a900473ffffffffffffffffffffffffffffffffffffffff16908060020154908060030154908060040160009054906101000a900460ff16908060040160019054906101000a900460ff16905086565b60008082815260200190815260200160002060040160009054906101000a900460ff16156102ad576040517f08c379a00000000000000000000000000000000000000000000000000000000081526004016102a490610e30565b60405180910390fd5b6040518060c001604052803373ffffffffffffffffffffffffffffffffffffffff168152602001600073ffffffffffffffffffffffffffffffffffffffff1681526020013481526020016000801b81526020016001151581526020016000151581525060008083815260200190815260200160002060008201518160000160006101000a81548173ffffffffffffffffffffffffffffffffffffffff021916908373ffffffffffffffffffffffffffffffffffffffff16021790555060208201518160010160006101000a81548173ffffffffffffffffffffffffffffffffffffffff021916908373ffffffffffffffffffffffffffffffffffffffff160217905550604082015181600201556060820151816003015560808201518160040160006101000a81548160ff02191690831515021790555060a08201518160040160016101000a81548160ff0219169083151502179055509050503373ffffffffffffffffffffffffffffffffffffffff16817fb61791f32ed77ee8198b9ed61f769e123e216267beb68a9f8334b8b80db328c73460405161044e9190610e50565b60405180910390a350565b60008082815260200190815260200160002060040160009054906101000a900460ff166104bb576040517f08c379a00000000000000000000000000000000000000000000000000000000081526004016104b290610eb7565b60405180910390fd5b600073ffffffffffffffffffffffffffffffffffffffff1660008083815260200190815260200160002060010160009054906101000a900473ffffffffffffffffffffffffffffffffffffffff1673ffffffffffffffffffffffffffffffffffffffff161461055f576040517f08c379a000000000000000000000000000000000000000000000000000000000815260040161055690610f23565b60405180910390fd5b3360008083815260200190815260200160002060010160006101000a81548173ffffffffffffffffffffffffffffffffffffffff021916908373ffffffffffffffffffffffffffffffffffffffff1602179055503373ffffffffffffffffffffffffffffffffffffffff16817f1ab737f2326354ba1db3a9f214c8e99aa6b478ad6a3429046057df5eb7ebde1f60405160405180910390a350565b60008082815260200190815260200160002060000160009054906101000a900473ffffffffffffffffffffffffffffffffffffffff1673ffffffffffffffffffffffffffffffffffffffff163373ffffffffffffffffffffffffffffffffffffffff161461069d576040517f08c379a000000000000000000000000000000000000000000000000000000000815260040161069490610f8f565b60405180910390fd5b60008082815260200190815260200160002060040160019054906101000a900460ff1615610700576040517f08c379a00000000000000000000000000000000000000000000000000000000081526004016106f790610ffb565b60405180910390fd5b600160008083815260200190815260200160002060040160016101000a81548160ff0219169083151502179055506000806000838152602001908152602001600020600201549050600080600084815260200190815260200160002060010160009054906101000a900473ffffffffffffffffffffffffffffffffffffffff1690508073ffffffffffffffffffffffffffffffffffffffff166108fc839081150290604051600060405180830381858888f193505050501580156107c8573d6000803e3d6000fd5b508073ffffffffffffffffffffffffffffffffffffffff16837f52b6070d69e63ffe5295e46cfc2a5fb7ad893d5eebc4ace196a8e361fcd5762560405160405180910390a3505050565b60008082815260200190815260200160002060000160009054906101000a900473ffffffffffffffffffffffffffffffffffffffff1673ffffffffffffffffffffffffffffffffffffffff163373ffffffffffffffffffffffffffffffffffffffff16146108b5576040517f08c379a00000000000000000000000000000000000000000000000000000000081526004016108ac90610f8f565b60405180910390fd5b807f67c0bb202594c063ee0ebeb347a386b3e0dfa2a04d23eff1e21d36acf875ff8b336040516108e5919061101b565b60405180910390a250565b60008083815260200190815260200160002060010160009054906101000a900473ffffffffffffffffffffffffffffffffffffffff1673ffffffffffffffffffffffffffffffffffffffff163373ffffffffffffffffffffffffffffffffffffffff1614610993576040517f08c379a000000000000000000000000000000000000000000000000000000000815260040161098a90611082565b60405180910390fd5b8060008084815260200190815260200160002060030181905550817fc0f6ac21b3117c819c68486bc0bf317115e1185a96af4a283256cd6fa8cba3c3826040516109dd91906110a2565b60405180910390a25050565b6109f1610b0b565b6000808381526020019081526020016000206040518060c00160405290816000820160009054906101000a900473ffffffffffffffffffffffffffffffffffffffff1673ffffffffffffffffffffffffffffffffffffffff1673ffffffffffffffffffffffffffffffffffffffff1681526020016001820160009054906101000a900473ffffffffffffffffffffffffffffffffffffffff1673ffffffffffffffffffffffffffffffffffffffff1673ffffffffffffffffffffffffffffffffffffffff16815260200160028201548152602001600382015481526020016004820160009054906101000a900460ff161515151581526020016004820160019054906101000a900460ff1615151515815250509050919050565b6040518060c00160405280600073ffffffffffffffffffffffffffffffffffffffff168152602001600073ffffffffffffffffffffffffffffffffffffffff16815260200160008152602001600080191681526020016000151581526020016000151581525090565b600080fd5b6000819050919050565b610b8c81610b79565b8114610b9757600080fd5b50565b600081359050610ba981610b83565b92915050565b600060208284031215610bc557610bc4610b74565b5b6000610bd384828501610b9a565b91505092915050565b600073ffffffffffffffffffffffffffffffffffffffff82169050919050565b6000610c0782610bdc565b9050919050565b610c1781610bfc565b82525050565b6000819050919050565b610c3081610c1d565b82525050565b610c3f81610b79565b82525050565b60008115159050919050565b610c5a81610c45565b82525050565b600060c082019050610c756000830189610c0e565b610c826020830188610c0e565b610c8f6040830187610c27565b610c9c6060830186610c36565b610ca96080830185610c51565b610cb660a0830184610c51565b979650505050505050565b60008060408385031215610cd857610cd7610b74565b5b6000610ce685828601610b9a565b9250506020610cf785828601610b9a565b9150509250929050565b610d0a81610bfc565b82525050565b610d1981610c1d565b82525050565b610d2881610b79565b82525050565b610d3781610c45565b82525050565b60c082016000820151610d536000850182610d01565b506020820151610d666020850182610d01565b506040820151610d796040850182610d10565b506060820151610d8c6060850182610d1f565b506080820151610d9f6080850182610d2e565b5060a0820151610db260a0850182610d2e565b50505050565b600060c082019050610dcd6000830184610d3d565b92915050565b600082825260208201905092915050565b7f616c72656164792066756e646564000000000000000000000000000000000000600082015250565b6000610e1a600e83610dd3565b9150610e2582610de4565b602082019050919050565b60006020820190508181036000830152610e4981610e0d565b9050919050565b6000602082019050610e656000830184610c27565b92915050565b7f6e6f742066756e64656400000000000000000000000000000000000000000000600082015250565b6000610ea1600a83610dd3565b9150610eac82610e6b565b602082019050919050565b60006020820190508181036000830152610ed081610e94565b9050919050565b7f616c726561647920636c61696d65640000000000000000000000000000000000600082015250565b6000610f0d600f83610dd3565b9150610f1882610ed7565b602082019050919050565b60006020820190508181036000830152610f3c81610f00565b9050919050565b7f6f6e6c7920636c69656e74000000000000000000000000000000000000000000600082015250565b6000610f79600b83610dd3565b9150610f8482610f43565b602082019050919050565b60006020820190508181036000830152610fa881610f6c565b9050919050565b7f72656c6561736564000000000000000000000000000000000000000000000000600082015250565b6000610fe5600883610dd3565b9150610ff082610faf565b602082019050919050565b6000602082019050818103600083015261101481610fd8565b9050919050565b60006020820190506110306000830184610c0e565b92915050565b7f6e6f7420776f726b657200000000000000000000000000000000000000000000600082015250565b600061106c600a83610dd3565b915061107782611036565b602082019050919050565b6000602082019050818103600083015261109b8161105f565b9050919050565b60006020820190506110b76000830184610c36565b9291505056fea2646970667358221220f4db28a3e6c20a310a9d436def4ffefb479486483cc7a9432f12fa56a1d062c464736f6c63430008180033",
  "linkReferences": {},
  "deployedLinkReferences": {}
}